:02000004080AE8
:1000000000000A08D4170A080000060006000501CF
:0800100004027E05000000005F
:040018009C130A0823
:10001C0009480A4908B5884205D0094A824202D0EB
:10002C00121A01F071F90748074A0021121A01F05F
:10003C0076F9064808BD00BF0000002024170A0806
:10004C0088000020880000206C0600206C06002030
:10005C0070B500F035FE074B074C1E46E41AA40899
:10006C000025A54204D056F8253098470135F8E70D
:10007C0070BD00BFEC160A0820170A0800F098B8EB
:10008C0008B500F01FF8BDE8084000F0DBBD00F03B
:10009C0083BA0078B0FA80F04009704701230370EE
:1000AC007047000038B5064D002404F14000284488
:1000BC00103C00F0BCFE14F1500FF6D138BD00BF5F
:1000CC0094000020704700002DE9F8432A4E2B4D78
:1000DC0030782B4C00F031FC287800F02EFC207886
:1000EC0000F02BFC3088012100F086FF01212888CC
:1000FC0000F082FF234BDFF8A0901888002100F05D
:10010C007BFF0121B9F8000000F076FF1E4B0021A7
:10011C001888DFF8888000F06FFF1C4F01212088C1
:10012C0000F06AFF1A4E0121B8F8000000F064FFDD
:10013C000121388800F060FF0021308800F05CFF5E
:10014C000021288800F069FF0021B9F8000000F0B8
:10015C0064FF0021208800F060FF0021B8F8000047
:10016C0000F05BFF0021388800F057FF3268094B24
:10017C001A60BDE8F88300BF90000020100000203A
:10018C000C0000201C0000200000002004000020B7
:10019C00080000208C000020180000201400002013
:1001AC00024B01460022187800F0B0BB90000020F2
:1001BC0008B500F045FC4FF4165100F027FCFFF792
:1001CC0083FF42F21070FFF7EBFFBDE808400120FF
:1001DC0000F0A8BD10B5114C00F022F910492046D2
:1001EC0000F06CFE0F4904F1100000F067FE0E49A0
:1001FC0004F1200000F062FE0C4904F1300000F024
:10020C005DFE0B4904F1400000F058FEBDE81040C3
:10021C00084A0949002000F019BF00BF94000020D3
:10022C0009140A0816140A0852140A0835140A0884
:10023C0042140A0888000020B1000A0808B5024BD5
:10024C001B689B6C019308BDC001060808B5024BE6
:10025C001B681B68019308BDD801060808B5024B42
:10026C001B685B68019308BDD801060808B5024BF2
:10027C001B681B69019308BDD801060808B5024B21
:10028C001B685B69019308BDD801060808B5024BD1
:10029C001B689B69019308BDD801060808B5024B81
:1002AC001B68DB69019308BDD801060808B5024B31
:1002BC001B681B6A019308BDD801060808B5024BE0
:1002CC001B681B68019308BDA801060808B5024B02
:1002DC001B685B68019308BDA801060808B5024BB2
:1002EC001B681B6E019308BDAC01060808B5024BD8
:1002FC001B685B6E019308BDAC01060808B5024B88
:10030C001B689B6E019308BDAC01060808B5024B37
:10031C001B68DB6E019308BDAC01060808B5024BE7
:10032C001B681B6F019308BDAC01060808B5024B96
:10033C001B685B6F019308BDAC01060808B5034B45
:10034C001B68D3F88030019308BD0000AC0106088F
:10035C0008B5024B1B689B69019308BDC4010608D4
:10036C0008B5024B1B685B6A019308BDC401060803
:10037C0008B5024B1B689B6A019308BDC4010608B3
:10038C0008B5024B1B68DB6A019308BDC401060863
:10039C0008B5024B1B681B6B019308BDC401060812
:1003AC0008B5024B1B685B6B019308BDC4010608C2
:1003BC0008B5024B1B689B6B019308BDC401060872
:1003CC0008B5024B1B681B6C019308BDC4010608E1
:1003DC0008B5024B1B681B6B019308BDD0010608C6
:1003EC0008B5024B1B685B68019308BD9C010608AD
:1003FC0008B5024B1B685B69019308BD9C0106089C
:10040C0008B5024B1B68DB69019308BDB4010608F3
:10041C0008B5024B1B681B6A019308BDB4010608A2
:10042C0008B5024B1B681B68019308BDB001060898
:10043C0008B5024B1B685B68019308BDB001060848
:10044C0008B5024B1B689B68019308BDB0010608F8
:10045C0008B5024B1B68DB68019308BDB0010608A8
:10046C0008B5024B1B681B69019308BDB001060857
:10047C0008B5024B1B689B68019308BDA8010208D4
:10048C0008B5024B1B68DB68019308BDA801020884
:10049C0008B5024B1B689B69019308BDA8010208B3
:1004AC0008B5024B1B68DB6B019308BDCC01060839
:1004BC0008B5024B1B685B68019308BDC8010608B0
:1004CC0008B5024B1B689B68019308BDC801060860
:1004DC0008B5024B1B68DB68019308BDC801060810
:1004EC0008B5024B1B681B69019308BDC8010608BF
:1004FC0008B5024B1B685B69019308BDC80106086F
:10050C0008B5024B1B689B69019308BDC80106081E
:10051C0008B5024B1B68DB69019308BDC8010608CE
:10052C0008B5024B1B681B6A019308BDC80106087D
:10053C0008B5024B1B681B6B019308BDC80106086C
:10054C0008B5024B1B685B6B019308BDC80106081C
:10055C0008B5024B1B685B68019308BDA401060833
:10056C0008B5034B1B68D3F89030019308BD00000D
:10057C00A401060808B5034B1B68D3F89C30019303
:10058C0008BD0000A401060808B5024B1B681B68D7
:10059C00019308BDA001060808B5024B1B685B68F7
:1005AC00019308BDA001060808B5024B1B689B68A7
:1005BC00019308BDA001060800231A464068FFF706
:1005CC0077BF002202214068FFF782BF002211464C
:1005DC004068FFF775BF002211464068FFF780BFE7
:1005EC0000231A4619464068FFF782BF00231A46BB
:1005FC0019464068FFF784BF002281F00101406872
:10060C00FFF786BF00224068FFF792BF0022114619
:10061C004068FFF795BF002211464068FFF780BF86
:10062C0070B516468EB0044608A800F08DFA11225B
:10063C00002103A800F073FE304600F0A1FE002557
:10064C000A4B009581B25B6803AA3046FFF7F6FDB2
:10065C0020B12946204600F097FA03E003A9204672
:10066C0000F080FA20460EB070BD00BFEC000020F8
:10067C00024B034A1A6000225A607047E4000020C3
:10068C006C140A08704710B50446102100F0E3FC06
:10069C00204610BD70B504460E46074B002503607E
:1006AC0040F80C5FFFF794FE30462671FFF7A8FE6A
:1006BC00A560204670BD00BFA0140A080079FFF7A2
:1006CC00A7BE002211464068FFF70ABFF0B51646D8
:1006DC0089B011220F460446002103A800F01FFE2A
:1006EC00304600F04DFE0025009581B27B6803AAD0
:1006FC003046FFF7A3FD20B12946204600F044FA0E
:10070C0003E003A9204600F02DFA204609B0F0BD05
:10071C00002211464068FFF703BF002211464068D3
:10072C00FFF70EBF00224068FFF702BF002281F0E6
:10073C0001014068FFF7ECBE00231A4619464068D9
:10074C00FFF7DEBE00231A4619464068FFF7D0BEFD
:10075C00002211464068FFF7B3BE00220221406818
:10076C00FFF7B6BE00231A464068FFF7A1BE000093
:10077C00024B04225A60024A1A607047EC000020B7
:10078C00B0140A087047F8B5064615460C468F1883
:10079C00BC4206D0336814F8011B9B68304698475E
:1007AC00F6E72846F8BD0022007CFFF797BD002134
:1007BC00007CFFF79BBD0021007CFFF79FBD002153
:1007CC00007CFFF7A3BD0021007CFFF7A7BD10B58F
:1007DC000446142100F03FFC204610BD10B5044621
:1007EC0008464FF47A73A360044B002120746160B7
:1007FC002360FFF7A3FD204610BD00BFE4140A08D8
:10080C000021007CFFF792BD70474174704708B51A
:10081C00007CFFF7D5FD20EAE07008BD08B5007C30
:10082C00FFF7A6FD20EAE07008BD08B5007CFFF7D5
:10083C00AFFD30EA200028BF4FF0FF3008BD08B5EF
:10084C00007CFFF79DFD30EA200028BF4FF0FF3001
:10085C0008BD007CFFF7A4BD10B50446142100F0C0
:10086C00FAFB204610BD70B5457C04460E4625B9F2
:10087C00007CFFF7A5FD002805DD3146207CBDE896
:10088C007040FFF76DBD284670BD000010B50446E2
:10089C0008461146002262604FF47A72A260054A43
:1008AC0020742260012262741A46FFF751FD204623
:1008BC0010BD00BF0C150A08007CFFF779BD0000C5
:1008CC0038B50C4D296811F0010411D12846FFF7F9
:1008DC00E0FB68B1084A2146084B0948FFF7D6FFF0
:1008EC002846FFF7DBFB074A0749054800F0AEFB3B
:1008FC00034838BD8C010020900100200801002025
:10090C00F40000208800002015080A08F8B585B20C
:10091C00044628460E46174600F04AFB60B10221F9
:10092C002846FFF785FD022806D13A463146204677
:10093C00BDE8F840FFF7C2BCF8BD38B585B2044637
:10094C00284600F035FB50B102212846FFF770FD18
:10095C00022804D12046BDE83840FFF7B7BC38BDAB
:10096C0041747047704708B50021007CFFF78EFC7E
:10097C0030EA200028BF4FF0FF3008BD08B5012138
:10098C00007CFFF783FC30EA200028BF4FF0FF30DB
:10099C0008BD08B5007CFFF771FC20EAE07008BDCB
:1009AC0008B5007CFFF762FC20EAE07008BD007C13
:1009BC00FFF77CBC10B50446142100F04CFB20461C
:1009CC0010BD38B50446007C0D46FFF757FC0028D7
:1009DC0001DC607C28B12946207CFFF75FFC20EA13
:1009EC00E07038BD10B50446002363604FF47A7391
:1009FC00A360054B084623600123217463741146E0
:100A0C00FFF724FC204610BD3C150A080022007C90
:100A1C00FFF724BC10B504461422002100F07FFC23
:100A2C00054B20466360054BE36040F201132381C4
:100A3C008123238210BD00BF9902002018020020E0
:100A4C0030B50E4D87B001A8FFF7E4FF296811F00F
:100A5C00010410D12846FFF71CFB60B101AA214606
:100A6C000748FFF7BFFF2846FFF718FB054A064962
:100A7C00034800F0EBFA024807B030BD1402002026
:100A8C009C0300208800002071090A0810B5044658
:100A9C001422002100F043FC054B20466360054BFB
:100AAC00E36040F2011323818123238210BD00BF38
:100ABC004C040020B403002010B50E4C86B001A8E5
:100ACC00FFF7E4FF2368DB0710D42046FFF7E1FAB9
:100ADC0060B101AA01210848FFF784FF2046FFF707
:100AEC00DDFA064A0649044800F0B0FA024806B09E
:100AFC0010BD00BFB0030020380400208800002087
:100B0C0071090A08704710B50446182100F0A3FAC1
:100B1C00204610BDF8B50F4600F10806051D00244F
:100B2C0016F8011D0A22384600F07FF9AE42044443
:100B3C0007D0002CF4D02E21384600F049F904449B
:100B4C00EEE72046F8BD000010B50446044B112218
:100B5C0040F8043B002100F0E2FB204610BD00BF32
:100B6C006C150A080346074A10B543F8042B01F12B
:100B7C00100251F8044B914243F8044BF9D10A7816
:100B8C001A7010BD6C150A08024A416002600422FA
:100B9C00027570476C150A0810B59DF8084044EAB8
:100BAC00032343EA024242EA0161042341600375D4
:100BBC0010BD000037B5044D05609DF81850009528
:100BCC00FFF7EAFF03B030BD6C150A0810B5836857
:100BDC00044613B1032201469847204610BD00007D
:100BEC0008B5144B33B1FFF72BFF03681B6998470B
:100BFC00002816DC104B33B1FFF762FE03681B694B
:100C0C009847002810DC0D4B0BB1AFF300800C4B58
:100C1C007BB1FFF751FF03681B699847002806DC7E
:100C2C0008BDAFF30080E5E7AFF30080EBE7AFF36F
:100C3C00008008BD00000000000000000000000063
:100C4C000000000008B5FFF7CBFFFFF7D1FB014B0D
:100C5C00186008BDA80500200248034A0349121A6F
:100C6C0000F052BB004002400440024020170A082A
:100C7C0007B5002300931A466FF07701FFF77AFC53
:100C8C0003B05DF804FB000007B543880A2B08D0BD
:100C9C00502B09D1094B1B683BB103B05DF804EB39
:100CAC001847FFF7E5FF06E0002300931A466FF0A4
:100CBC007701FFF75FFC03B05DF804FB50050020E3
:100CCC0038B5104C104D2368AB42104B0CBF0122B1
:100CDC0000221A7002D0FFF7BFFF2560FFF780FBE0
:100CEC00044600F025FB0A4B13B12046AFF30080FD
:100CFC0000210748FFF7D4FBBDE838400021054828
:100D0C00FFF72EBC004002401E1C279A5405002001
:100D1C0000000000950C0A0810B50446FFF756FFBA
:100D2C00204610BD10B50446FFF7B2FB844208D034
:100D3C001CB1BDE81040FFF79BBBBDE81040FFF7AE
:100D4C009FBB10BD034800238360034A034900F096
:100D5C007DB900BF5805002088000020250D0A0829
:100D6C00024B1A68024B1A60704700BF200000202B
:100D7C0068050020014A024B1A60704717160A08D2
:100D8C006C050020F8B506460D468F180024BD42B0
:100D9C000CD0336815F8011B9B6830469847002827
:100DAC0001DB0444F3E7002C08BF04462046F8BDE1
:100DBC0070B505460C46084649B100F0E1FA2B68BF
:100DCC00024621462846BDE87040DB68184770BDD6
:100DDC0003689B681847012A98BF0A2230B50B4656
:100DEC008BB000218DF824100DF12304B3FBF2F528
:100DFC0005FB1233DBB2092B94BF30333733DBB234
:100E0C00214604F801392B46002DEFD1FFF7D0FF16
:100E1C000BB030BD10B422B90368C9B29B6810BCCA
:100E2C001847D2B210BCFFF7D6BFFFF7F3BF10B50F
:100E3C0004460068FFF7B0FB204610BD10B5044611
:100E4C00006808B1FFF7A8FB00232360A360636070
:100E5C0010BD38B504460D4600680131FFF7A4FB00
:100E6C0010B184E82100012038BD10B50368044698
:100E7C0013B143688B4207D22046FFF7EAFF20B13B
:100E8C00A3680BB922681370012010BD70B50E4613
:100E9C00114604461546FFF7E8FF18B92046FFF740
:100EAC00CDFF09E02A463146A560206800F02CFAF7
:100EBC002268A3680021D154204670BD38B50023A8
:100ECC00044603604360836003730D4639B10846E2
:100EDC0000F056FA294602462046FFF7D7FF204677
:100EEC0038BD00004FF6FF72034B0020187058807D
:100EFC009A80FFF72DBB00BF7005002038B50B4D55
:100F0C00296811F001040FD12846FFF7C2F858B137
:100F1C0021460748FFF762FC2846FFF7BFF8054A51
:100F2C000549034800F092F8014838BD78050020C7
:100F3C007C0500208800002091070A0813B5084C96
:100F4C0000231A46194600932046FFF733FE20462D
:100F5C00044A054902B0BDE8104000F077B800BF64
:100F6C009005002088000020110B0A0870B50C4C6D
:100F7C000C4E0D4D00212046FFF78CFB20460B4CF0
:100F8C003246294600F062F801212046FFF782FB29
:100F9C00324629462046BDE8704000F057B800BFE5
:100FAC00AC0500208800002091060A08BC05002032
:100FBC0010B504460F48FFF781FB28B1A4F10D03CF
:100FCC00022B01D8002010BDFFF798FFFFF718FC8B
:100FDC0008B1012CF6D9FFF773FCFFF76DFC18B1C3
:100FEC00A4F11203012BEDD9172C8CBF002001208A
:100FFC0010BD00BFAC050020172838B504460D46BF
:10100C000AD8FF2908D0FFF7D3FF28B1294620467C
:10101C00BDE83840FFF714BA38BD38B504460D4664
:10102C00FFF716FAFF2810D0062804D84D2323FA10
:10103C0000F0C30709D42046FFF7BAFF28B12946B0
:10104C002046BDE83840FFF70BBA38BD0B460146C9
:10105C00184600F04BB9FFF71AB80000184B1A6885
:10106C00D1075CBF01221A60164B1A68D2075CBF0D
:10107C0001221A60144B1A68D0075CBF01221A6057
:10108C00124B1A68D1075CBF01221A60104B1A6808
:10109C00D2075CBF01221A600E4B1A68D0075CBFE6
:1010AC0001221A600C4B1A68D1075CBF01221A602E
:1010BC000A4B1A68D2075CBF01221A60704700BF46
:1010CC00E8050020E4050020E0050020DC050020F8
:1010DC00D8050020D4050020D0050020CC05002028
:1010EC00244B1A68D0075CBF01221A60224B1A6885
:1010FC00D1075CBF01221A60204B1A68D2075CBF73
:10110C0001221A601E4B1A68D0075CBF01221A60BC
:10111C001C4B1A68D1075CBF01221A601A4B1A6863
:10112C00D2075CBF01221A60184B1A68D0075CBF4B
:10113C0001221A60164B1A68D1075CBF01221A6093
:10114C00144B1A68D2075CBF01221A60124B1A6842
:10115C00D0075CBF01221A60104B1A68D1075CBF24
:10116C0001221A600E4B1A68D2075CBF01221A606A
:10117C00704700BF1806002014060020100600203F
:10118C000C060020080600200406002000060020A3
:10119C00FC050020F8050020F4050020F0050020D7
:1011AC00EC050020244B1A68D0075CBF01221A60A2
:1011BC00224B1A68D1075CBF01221A60204B1A68B7
:1011CC00D2075CBF01221A601E4B1A68D0075CBFA5
:1011DC0001221A601C4B1A68D1075CBF01221A60ED
:1011EC001A4B1A68D2075CBF01221A60184B1A6896
:1011FC00D0075CBF01221A60164B1A68D1075CBF7E
:10120C0001221A60144B1A68D2075CBF01221A60C3
:10121C00124B1A68D0075CBF01221A60104B1A6877
:10122C00D1075CBF01221A600E4B1A68D2075CBF53
:10123C0001221A60704700BF4806002044060020B7
:10124C00400600203C060020380600203406002012
:10125C00300600202C060020280600202406002042
:10126C00200600201C060020184B1A68D1075CBF12
:10127C0001221A60164B1A68D2075CBF01221A6051
:10128C00144B1A68D0075CBF01221A60124B1A6803
:10129C00D1075CBF01221A60104B1A68D2075CBFE1
:1012AC0001221A600E4B1A68D0075CBF01221A602B
:1012BC000C4B1A68D1075CBF01221A600A4B1A68E2
:1012CC00D2075CBF01221A60704700BF680600207D
:1012DC0064060020600600205C06002058060020F2
:1012EC0054060020500600204C06002010B5054C7A
:1012FC0013462CB10A4601460220AFF3008010BD04
:10130C00204610BD0000000010B5431E0A44914257
:10131C0004D011F8014B03F8014FF8E710BD034658
:10132C000244934202D003F8011BFAE77047000015
:10133C0038B5124B05461C68A36BD3B91820FFF7C0
:10134C0023F943F20E33A06303804AF6CD33438076
:10135C0041F2342383804EF26D63C3804DF6EC630F
:10136C000381052343810B23838101220023C0E9E0
:10137C000423A36B00221D615A6138BD8400002038
:10138C00034613F8012B002AFBD1181A01387047B9
:10139C001D000A085D000A0889000A088D000A0869
:1013AC000000000053747269707320566F6C746186
:1013BC0067653A0053656E64657220496E74657298
:1013CC00666572656E636520566F6C746167653A0D
:1013DC00005265636569766520496E746572666551
:1013EC0072656E636520566F6C746167653A002C8C
:1013FC00004F534D0053494D0052494D00737472C8
:10140C0069704D6561737572650073656E646572A4
:10141C00496E744D65617375726500726563496ED2
:10142C00744D65617375726500616464537472699F
:10143C0070004144440072656D6F76655374726937
:10144C00700053554200726563496E744D6561734B
:10145C007572656D000000000000000000000000C7
:10146C00C5050A08CF050A08D9050A08E3050A08C4
:10147C00ED050A08F9050A0805060A0811060A0806
:10148C0019060A0823060A082D060A08000000009F
:10149C000000000091060A0893060A0800000000EC
:1014AC000000000071070A0867070A085D070A08B0
:1014BC00CF060A0851070A0845070A0839070A081F
:1014CC0031070A0827070A081D070A08D9060A085F
:1014DC00000000000000000091070A08DB070A0862
:1014EC00B3070A0893070A08BB070A08C3070A08C8
:1014FC00CB070A08D3070A08000000000000000010
:10150C0015080A0865080A0873080A08910D0A08E4
:10151C0029080A084B080A0837080A085F080A084D
:10152C0017080A081B080A08000000000000000049
:10153C0071090A08C1090A08CF090A08910D0A089D
:10154C00AD090A0873090A0889090A08BB090A08BF
:10155C009F090A086D090A0800000000000000003D
:10156C00210B0A08110B0A08130B0A085A00252B29
:10157C003033643A253032750025592D256D2D25D3
:10158C00645425483A254D3A2553257A00617363F6
:10159C0074696D6500626175640053657269616C94
:1015AC000055534253657269616C310074797065F2
:1015BC0000706172616D00636D6400696400686E37
:1015CC0064007374726D0066696C74006C766C00E8
:1015DC0061646448616E646C65720072656D6F76EF
:1015EC006548616E646C657200656E756D48616E00
:1015FC00646C657273004A534F4E53747265616D1F
:10160C004C6F6748616E646C657200617070002588
:10161C003031307520005D20002564002C2000281E
:10162C00293A2000205B00636F6465203D20002573
:10163C00690064657461696C73203D20000D0A00BB
:10164C0066006C6E00666E00636F646500646574A2
:10165C0061696C006E6F6E65007472616365006920
:10166C006E666F007761726E006572726F720070D9
:10167C00616E696300616C6C00000000000000008A
:10168C00000000000000000000000000000000004E
:10169C00000000000000000000000000000000003E
:1016AC00000000000000000000000000000000002E
:1016BC00000000000000000000000000000000001E
:1016CC00000000000000000000000000000000000E
:1016DC0000000000000000000000000043000000BB
:1016EC00E1010A087D060A087D070A08510D0A085F
:1016FC006D0D0A08810D0A08F10E0A08490F0A0837
:10170C00790F0A0869100A08ED100A08B1110A08C5
:04171C0075120A0830
:0417200000000000C5
:101724000C000000010000000D0000000600000095
:101734000500000002000000040000000300000097
:1017440099150A080000000088160A08A8160A0855
:10175400C8160A0800000000000000000000000095
:1017640000000000E8160A08000000000000000065
:101774000000000000000000000000000000000065
:101784000000000000000000000000000000000055
:101794000000000000000000000000000000000045
:0817A4000000000024000020F9
:1017AC00FFFFFFFF00000102030405060708090AFA
:1017BC000B0C0D0E0F101112131415161718191AF5
:0817CC001B1C1D1E1F2028003C
:0417D40078563412FD
:04000005080A001CC9
:00000001FF
