:02000004080AE8
:1000000000000A08C01C0A080000060006000501DE
:0800100004027E05000000005F
:040018006C180A084E
:10001C0009480A4908B5884205D0094A824202D0EB
:10002C00121A01F0D9FB0748074A0021121A01F0F5
:10003C00DEFB064808BD00BF00000020F41B0A08C8
:10004C00A4000020A400002058090020580900201A
:10005C0070B501F04DF8074B074C1E46E41AA40886
:10006C000025A54204D056F8253098470135F8E70D
:10007C0070BD00BFBC1B0A08F01B0A0800F022B8B8
:10008C0008B500F0C2FABDE8084000F0F3BF00F07C
:10009C00B1BC0078B0FA80F04009704701230370BE
:1000AC007047000038B5064D002404F14000284488
:1000BC00103C01F0F3F814F1500FF6D138BD00BF2D
:1000CC008003002008B500F0D3FE4FF4165100F069
:1000DC00B5FEBDE80840012001F03CB8024B0246D9
:1000EC007F21188801F0FFB91C0000202DE9F8438E
:1000FC002C4E2D4D30782D4C00F036FE287800F02B
:10010C0033FE207800F030FE3088012101F0AAF98E
:10011C000121288801F0A6F9254BDFF8AC9018884E
:10012C00002101F09FF90121B9F8000001F09AF9C2
:10013C00204B00211888DFF8948001F093F91E4FB2
:10014C000121208801F08EF91C4E0121B8F8000025
:10015C0001F088F90121388801F084F900213088F8
:10016C0001F080F90021288801F08DF90021B9F8FF
:10017C00000001F088F90021208801F084F90021A9
:10018C00B8F8000001F07FF90021388801F07BF904
:10019C000B4B1868FFF7A2FF32680A4B1A60BDE8D8
:1001AC00F88300BF1C000020240000202000002049
:1001BC003400002000000020A800002008000020CF
:1001CC000C000020AC0000202C0000202800002097
:1001DC00024B02467F21188801F085B924000020CB
:1001EC00F8B5254D254C2878254F00F0BDFD20781D
:1001FC0000F0BAFD387800F0B7FD224E28880021B7
:10020C0001F030F9204D2088012101F02BF91F4C11
:10021C000121308801F026F90121288801F022F90A
:10022C000021208801F01EF93888002101F01AF90C
:10023C00174B184F1888002101F014F90121388848
:10024C0001F010F9144B0021188801F00BF9002172
:10025C00388801F018F90021308801F014F90021D8
:10026C00288801F010F90D4B1868FFF7B1FF2268D0
:10027C000B4B1A60F8BD00BF1C00002024000020AE
:10028C0020000020340000202C0000200000002062
:10029C0028000020A80000200800002014000020E6
:1002AC00AC000020024B02467F21188801F01BB9DC
:1002BC002000002070B5234E234D3078234C00F0E5
:1002CC0053FD287800F050FD207800F04DFD30886B
:1002DC00002101F0C7F82888002101F0C3F81C4B5D
:1002EC000021188801F0BEF81A4B0021188801F083
:1002FC00B9F8194B00211888184E01F0B3F8184DB5
:10030C002088012101F0AEF8164C0121308801F053
:10031C00A9F80121288801F0A5F80021208801F016
:10032C00A1F80021308801F0AEF80021288801F0F6
:10033C00AAF80D4B1868FFF7B5FF22680B4B1A6033
:10034C0070BD00BF1C0000202400002020000020F5
:10035C00340000202C000020000000202800002089
:10036C00A80000200800002038000020AC0000206D
:10037C0010B5002300EB8104A04203D050F8042BED
:10038C001344F9E7B3FBF1F010BD30B500EB820577
:10039C000024A84205D050F8043B5B1A03FB03442D
:1003AC00F7E7B4FBF2F030BD2DE9F84F0446874D6A
:1003BC00FFF79CFE286800F0FDFE24B100F058FD0C
:1003CC00834900F033FFDFF82CA20026814BDFF8C5
:1003DC002CB2186800F0EEFEBAF8000001F06CF8D0
:1003EC003C214BF8260080465846FFF7C1FF3C22C3
:1003FC00014607465846FFF7C8FF83467CB300F01A
:10040C0037FD814600F00AFA0A220146484600F000
:10041C0036FF00F02DFD704900F0F5FE00F028FDD0
:10042C000A22414600F038FF00F022FD6A4900F034
:10043C00EAFE00F01DFD0A22394600F02DFF00F007
:10044C0017FD654900F0DFFE00F012FD59460A2247
:10045C0000F022FF00F00CFD604900F0D4FE0136E4
:10046C003C2EB3D1FFF7BCFE24B100F001FD5C497A
:10047C0000F0DCFE286800F09DFEDFF870B100266D
:10048C00584B186800F096FE574B188801F014F87A
:10049C003C214BF8260080465448FFF769FF3C226C
:1004AC00014607465148FFF770FF81467CB300F0C8
:1004BC00DFFC824600F0B2F90A220146504600F0F9
:1004CC00DEFE00F0D5FC444900F09DFE00F0D0FCAF
:1004DC000A22414600F0E0FE00F0CAFC3E4900F062
:1004EC0092FE00F0C5FC0A22394600F0D5FE00F061
:1004FC00BFFC394900F087FE00F0BAFC49460A22DD
:10050C0000F0CAFE00F0B4FC344900F07CFE013669
:10051C003C2EB5D1FFF7CEFE24B100F0A9FC344936
:10052C0000F084FE286800F045FEDFF8D480DFF888
:10053C00C8900025D8F8000000F03CFE2D4B188820
:10054C0000F0BAFF3C2149F8250007462A48FFF77E
:10055C000FFF3C22014606462748FFF716FF82464E
:10056C007CB300F085FC834600F058F90A22014662
:10057C00584600F084FE00F07BFC174900F043FE67
:10058C0000F076FC0A22394600F086FE00F070FC82
:10059C00114900F038FE00F06BFC0A22314600F0E5
:1005AC007BFE00F065FC0C4900F02DFE00F060FCB9
:1005BC0051460A2200F070FE00F05AFC074900F088
:1005CC0022FE01353C2DB5D1BDE8F88F040000208A
:1005DC00CD180A0830000020CB180A081A1B0A088C
:1005EC00D1180A081000002000000020A0010020F3
:1005FC00D5180A080800002090020020B000002046
:10060C00180000200120FFF7CFBEFFF7FBBF000052
:10061C0010B5114C00F01AF91049204600F085FE77
:10062C000F4904F1100000F080FE0E4904F1200087
:10063C0000F07BFE0C4904F1300000F076FE0B4913
:10064C0004F1400000F071FEBDE81040084A094971
:10065C00002000F064BF00BF80030020D9180A08F6
:10066C00E6180A0822190A0805190A0812190A08B4
:10067C00A4000020B1000A0808B5024B1B689B6C53
:10068C00019308BDC001060808B5024B1B681B6826
:10069C00019308BDD801060808B5024B1B685B68BE
:1006AC00019308BDD801060808B5024B1B681B69ED
:1006BC00019308BDD801060808B5024B1B685B699D
:1006CC00019308BDD801060808B5024B1B689B694D
:1006DC00019308BDD801060808B5024B1B68DB69FD
:1006EC00019308BDD801060808B5024B1B681B6AAC
:1006FC00019308BDD801060808B5024B1B685B685E
:10070C00019308BDA801060808B5024B1B681B6EB7
:10071C00019308BDAC01060808B5024B1B685B6E63
:10072C00019308BDAC01060808B5024B1B689B6E13
:10073C00019308BDAC01060808B5024B1B68DB6EC3
:10074C00019308BDAC01060808B5024B1B681B6F72
:10075C00019308BDAC01060808B5024B1B685B6F22
:10076C00019308BDAC01060808B5034B1B68D3F810
:10077C008030019308BD0000AC01060808B5024B9F
:10078C001B689B69019308BDC401060808B5024BA0
:10079C001B685B6A019308BDC401060808B5024BCF
:1007AC001B689B6A019308BDC401060808B5024B7F
:1007BC001B68DB6A019308BDC401060808B5024B2F
:1007CC001B681B6B019308BDC401060808B5024BDE
:1007DC001B685B6B019308BDC401060808B5024B8E
:1007EC001B689B6B019308BDC401060808B5024B3E
:1007FC001B681B6C019308BDC401060808B5024BAD
:10080C001B681B6B019308BDD001060808B5024B91
:10081C001B685B68019308BD9C01060808B5024B78
:10082C001B685B69019308BD9C01060808B5024B67
:10083C001B68DB69019308BDB401060808B5024BBF
:10084C001B681B6A019308BDB401060808B5024B6E
:10085C001B681B68019308BDB001060808B5024B64
:10086C001B685B68019308BDB001060808B5024B14
:10087C001B689B68019308BDB001060808B5024BC4
:10088C001B68DB68019308BDB001060808B5024B74
:10089C001B681B69019308BDB001060808B5024B23
:1008AC001B681B6B019308BDB001060808B5024B11
:1008BC001B68DB6F019308BDB001060808B5024B3D
:1008CC001B689B68019308BDA801020808B5024B80
:1008DC001B68DB68019308BDA801020808B5024B30
:1008EC001B689B69019308BDA801020808B5024B5F
:1008FC001B68DB6B019308BDCC01060808B5024BE5
:10090C001B685B68019308BDC801060808B5024B5B
:10091C001B689B68019308BDC801060808B5024B0B
:10092C001B68DB68019308BDC801060808B5024BBB
:10093C001B681B69019308BDC801060808B5024B6A
:10094C001B685B69019308BDC801060808B5024B1A
:10095C001B689B69019308BDC801060808B5024BCA
:10096C001B68DB69019308BDC801060808B5024B7A
:10097C001B681B6A019308BDC801060808B5024B29
:10098C001B681B6B019308BDC801060808B5024B18
:10099C001B685B6B019308BDC801060808B5024BC8
:1009AC001B685B68019308BDA401060808B5024BDF
:1009BC001B685B69019308BDA401060808B5034BCD
:1009CC001B68D3F89030019308BD0000A401060801
:1009DC0008B5034B1B68D3F89C30019308BD00008D
:1009EC00A401060808B5024B1B681B68019308BDDF
:1009FC00A001060808B5024B1B685B68019308BD93
:100A0C00A001060808B5024B1B689B68019308BD42
:100A1C00A001060800231A464068FFF76FBF0022AA
:100A2C0002214068FFF77ABF002211464068FFF7A9
:100A3C006DBF002211464068FFF778BF00231A46AD
:100A4C0019464068FFF77ABF00231A4619464068DA
:100A5C00FFF77CBF002281F001014068FFF77EBFE9
:100A6C0000224068FFF78ABF002211464068FFF75A
:100A7C008DBF002211464068FFF778BF70B516464F
:100A8C008EB0044608A800F077FA1122002103A8C2
:100A9C0000F0ADFE304600F0DBFE00250A4B009561
:100AAC0081B25B6803AA3046FFF7E6FD20B1294608
:100ABC00204600F081FA03E003A9204600F06AFA10
:100ACC0020460EB070BD00BFD8030020024B034A75
:100ADC001A6000225A607047D00300203C190A08A3
:100AEC00704710B50446102100F01EFD204610BDC5
:100AFC0070B504460E46074B0025036040F80C5FAA
:100B0C00FFF77CFE30462671FFF790FEA56020466D
:100B1C0070BD00BF70190A080079FFF78FBE002264
:100B2C0011464068FFF702BFF0B5164689B0112296
:100B3C000F460446002103A800F059FE304600F091
:100B4C0087FE0025009581B27B6803AA3046FFF72B
:100B5C0093FD20B12946204600F02EFA03E003A9AC
:100B6C00204600F017FA204609B0F0BD00221146CD
:100B7C004068FFF7FBBE002211464068FFF706BF36
:100B8C0000224068FFF7FABE002281F001014068A4
:100B9C00FFF7E4BE00231A4619464068FFF7D6BE9D
:100BAC0000231A4619464068FFF7C8BE00221146BA
:100BBC004068FFF7ABBE002202214068FFF7AEBED3
:100BCC0000231A464068FFF799BE0000024B04222E
:100BDC005A60024A1A607047D803002080190A082C
:100BEC007047F8B5064615460C468F18BC4206D021
:100BFC00336814F8011B9B6830469847F6E7284683
:100C0C00F8BD0022007CFFF77FBD0021007CFFF7C0
:100C1C0083BD0021007CFFF787BD0021007CFFF71E
:100C2C008BBD0021007CFFF78FBD10B5044614214D
:100C3C0000F07AFC204610BD10B5044608464FF46F
:100C4C007A73A360044B0021207461602360FFF76A
:100C5C008BFD204610BD00BFB4190A080021007C92
:100C6C00FFF77ABD70474174704708B5007CFFF7F9
:100C7C00BDFD20EAE07008BD08B5007CFFF78EFDD5
:100C8C0020EAE07008BD08B5007CFFF797FD30EA5C
:100C9C00200028BF4FF0FF3008BD08B5007CFFF7DF
:100CAC0085FD30EA200028BF4FF0FF3008BD007CE6
:100CBC00FFF78CBD10B50446142100F035FC20461E
:100CCC0010BD70B5457C04460E4625B9007CFFF777
:100CDC008DFD002805DD3146207CBDE87040FFF716
:100CEC0055BD284670BD000010B504460846114697
:100CFC00002262604FF47A72A260054A207422606E
:100D0C00012262741A46FFF739FD204610BD00BF60
:100D1C00DC190A08007CFFF761BD000038B50C4DEA
:100D2C00296811F0010411D12846FFF7B2F968B116
:100D3C00084A2146084B0948FFF7D6FF2846FFF71B
:100D4C00ADF9074A0749054800F0E9FB034838BDEF
:100D5C00780400207C040020F4030020E003002031
:100D6C00A4000020710C0A0838B585B20446284648
:100D7C0000F054FB50B102212846FFF76FFD02280A
:100D8C0004D12046BDE83840FFF7B6BC38BD4174ED
:100D9C007047704708B50021007CFFF795FC30EADE
:100DAC00200028BF4FF0FF3008BD08B50121007CA2
:100DBC00FFF78AFC30EA200028BF4FF0FF3008BD57
:100DCC0008B5007CFFF778FC20EAE07008BD08B598
:100DDC00007CFFF769FC20EAE07008BD007CFFF79F
:100DEC0083BC10B50446142100F09EFB204610BDB8
:100DFC0038B50446007C0D46FFF75EFC002801DC8C
:100E0C00607C28B12946207CFFF766FC20EAE07064
:100E1C0038BD000010B50446002363604FF47A73AC
:100E2C00A360054B084623600123217463741146AB
:100E3C00FFF72AFC204610BD0C1A0A080022007C81
:100E4C00FFF72ABC10B504461422002100F0CFFC99
:100E5C00054B20466360054BE36040F20113238190
:100E6C008123238210BD00BF8505002004050020CE
:100E7C0030B50E4D87B001A8FFF7E4FF296811F0DB
:100E8C00010410D12846FFF704F960B101AA2146EC
:100E9C000748FFF7BFFF2846FFF700F9054A064948
:100EAC00034800F03CFB024807B030BD00050020B1
:100EBC0088060020A40000209F0D0A0810B50446E7
:100ECC001422002100F093FC054B20466360054B77
:100EDC00E36040F2011323818123238210BD00BF04
:100EEC0038070020A006002010B50E4C86B001A8D3
:100EFC00FFF7E4FF2368DB0710D42046FFF7C9F89F
:100F0C0060B101AA01210848FFF784FF2046FFF7D2
:100F1C00C5F8064A0649044800F001FB024806B031
:100F2C0010BD00BF9C06002024070020A400002058
:100F3C009F0D0A08704710B50446182100F0F4FA0A
:100F4C00204610BDF8B50F4600F10806051D00241B
:100F5C0016F8011D0A22384600F09CF9AE420444F2
:100F6C0007D0002CF4D02E21384600F050F9044460
:100F7C00EEE72046F8BD000010B50446044B1122E4
:100F8C0040F8043B002100F032FC204610BD00BFAD
:100F9C003C1A0A080346074A10B543F8042B01F122
:100FAC00100251F8044B914243F8044BF9D10A78E2
:100FBC001A7010BD3C1A0A08024A416002600422F1
:100FCC00027570473C1A0A0810B59DF8084044EAAF
:100FDC00032343EA024242EA0161042341600375A0
:100FEC0010BD000037B5044D05609DF818500095F4
:100FFC00FFF7EAFF03B030BD3C1A0A0810B583684E
:10100C00044613B1032201469847204610BD000048
:10101C0008B5144B33B1FFF72BFF03681B699847D6
:10102C00002816DC104B33B1FFF778FE03681B6900
:10103C009847002810DC0D4B0BB1AFF300800C4B24
:10104C007BB1FFF751FF03681B699847002806DC4A
:10105C0008BDAFF30080E5E7AFF30080EBE7AFF33B
:10106C00008008BD0000000000000000000000002F
:10107C000000000008B5FFF7CBFFFFF7CFFB014BDB
:10108C00186008BD940800200248034A0349121A4C
:10109C0000F0A2BB0040024004400240F01B0A08D2
:1010AC0007B5002300931A466FF07701FFF790FC09
:1010BC0003B05DF804FB000007B543880A2B08D089
:1010CC00502B09D1094B1B683BB103B05DF804EB05
:1010DC001847FFF7E5FF06E0002300931A466FF070
:1010EC007701FFF775FC03B05DF804FB3C080020AA
:1010FC0038B5104C104D2368AB42104B0CBF01227D
:10110C0000221A7002D0FFF7BFFF2560FFF77EFBAD
:10111C00044600F075FB0A4B13B12046AFF3008078
:10112C0000210748FFF7E2FBBDE8384000210548E5
:10113C00FFF744BC004002401E1C279A40080020C8
:10114C0000000000C5100A0810B50446FFF756FF52
:10115C00204610BD10B50446FFF7C0FB844208D0F2
:10116C001CB1BDE81040FFF7A9BBBDE81040FFF76C
:10117C00ADBB10BD034800238360034A034900F054
:10118C00CEB900BF44080020A400002055110A0865
:10119C00024B1A68024B1A60704700BF3C000020DB
:1011AC0054080020014A024B1A607047E71A0A08DB
:1011BC00580800200021FFF7F9BBF8B506460D468C
:1011CC008F180024BD420CD0336815F8011B9B68A6
:1011DC0030469847002801DB0444F3E7002C08BF95
:1011EC0004462046F8BD70B505460C46084649B184
:1011FC0000F02EFB2B68024621462846BDE87040C5
:10120C00DB68184770BD08B5FFF7EDFF08BD036834
:10121C009B68184738B50D210546FFF7F8FF0A21E2
:10122C0004462846FFF7F3FF204438BD38B5054681
:10123C00FFF7D9FF04462846FFF7ECFF204438BDE2
:10124C00012A98BF0A2230B50B468BB000218DF8CD
:10125C0024100DF12304B3FBF2F505FB1233DBB2C2
:10126C00092B94BF30333733DBB2214604F80139F4
:10127C002B46002DEFD1FFF7B6FF0BB030BD10B4ED
:10128C0022B90368C9B29B6810BC1847D2B210BC13
:10129C00FFF7D6BFFFF7F3BFFFF7F1BF10B504465A
:1012AC000068FFF7A7FB204610BD10B50446006888
:1012BC0008B1FFF79FFB00232360A360636010BDA0
:1012CC0038B504460D4600680131FFF79BFB10B1A1
:1012DC0084E82100012038BD10B50368044613B121
:1012EC0043688B4207D22046FFF7EAFF20B1A36880
:1012FC000BB922681370012010BD70B50E46114653
:10130C0004461546FFF7E8FF18B92046FFF7CDFF56
:10131C0009E02A463146A560206800F05DFA226893
:10132C00A3680021D154204670BD38B50023044673
:10133C0003604360836003730D4639B1084600F0C7
:10134C0087FA294602462046FFF7D7FF204638BDCC
:10135C004FF6FF72034B0020187058809A80FFF7ED
:10136C001DBB00BF5C08002038B50B4D296811F07F
:10137C0001040FD12846FEF78CFE58B121460748D0
:10138C00FFF75AFC2846FEF789FE054A0549034833
:10139C0000F0C5F8014838BD64080020680800203A
:1013AC00A4000020ED0B0A0813B5084C00231A46C4
:1013BC00194600932046FFF715FE2046044A0549BE
:1013CC0002B0BDE8104000F0AAB800BF7C080020B5
:1013DC00A4000020410F0A0870B50C4C0C4E0D4DAA
:1013EC0000212046FFF784FB20460B4C3246294651
:1013FC0000F095F801212046FFF77AFB324629468A
:10140C002046BDE8704000F08AB800BF9808002064
:10141C00A4000020ED0A0A08A808002010B5044614
:10142C000F48FFF779FB28B1A4F10D03022B01D86B
:10143C00002010BDFFF798FFFFF710FC08B1012C3E
:10144C00F6D9FFF76BFCFFF765FC18B1A4F112039A
:10145C00012BEDD9172C8CBF0020012010BD00BF33
:10146C0098080020172838B504460D460AD8FF29DD
:10147C0008D0FFF7D3FF28B129462046BDE83840F5
:10148C00FFF7F4B938BD38B504460D46FFF7F6F949
:10149C00FF2810D0062804D84D2323FA00F0C307E8
:1014AC0009D42046FFF7BAFF28B129462046BDE8EB
:1014BC003840FFF7EBB938BD10B5044609289CBF7E
:1014CC000A34A4B22046FFF7A9FF50B103212046ED
:1014DC00FFF7C4F9032804D12046BDE81040FFF7FC
:1014EC00DDB9002010BD70B504460D461646FFF759
:1014FC0095FF98B102212046FFF7B0F902280DD1D3
:10150C002046FFF7BBF9012801D0042806D132464A
:10151C0029462046BDE87040FFF7C8B970BD0B46A0
:10152C000146184600F04AB9FEF7B1BD184B1A68CF
:10153C00D1075CBF01221A60164B1A68D2075CBF38
:10154C0001221A60144B1A68D0075CBF01221A6082
:10155C00124B1A68D1075CBF01221A60104B1A6833
:10156C00D2075CBF01221A600E4B1A68D0075CBF11
:10157C0001221A600C4B1A68D1075CBF01221A6059
:10158C000A4B1A68D2075CBF01221A60704700BF71
:10159C00D4080020D0080020CC080020C808002067
:1015AC00C4080020C0080020BC080020B808002097
:1015BC00244B1A68D0075CBF01221A60224B1A68B0
:1015CC00D1075CBF01221A60204B1A68D2075CBF9E
:1015DC0001221A601E4B1A68D0075CBF01221A60E8
:1015EC001C4B1A68D1075CBF01221A601A4B1A688F
:1015FC00D2075CBF01221A60184B1A68D0075CBF77
:10160C0001221A60164B1A68D1075CBF01221A60BE
:10161C00144B1A68D2075CBF01221A60124B1A686D
:10162C00D0075CBF01221A60104B1A68D1075CBF4F
:10163C0001221A600E4B1A68D2075CBF01221A6095
:10164C00704700BF0409002000090020FC0800209E
:10165C00F8080020F4080020F0080020EC08002016
:10166C00E8080020E4080020E0080020DC08002046
:10167C00D8080020244B1A68D0075CBF01221A60DE
:10168C00224B1A68D1075CBF01221A60204B1A68E2
:10169C00D2075CBF01221A601E4B1A68D0075CBFD0
:1016AC0001221A601C4B1A68D1075CBF01221A6018
:1016BC001A4B1A68D2075CBF01221A60184B1A68C1
:1016CC00D0075CBF01221A60164B1A68D1075CBFA9
:1016DC0001221A60144B1A68D2075CBF01221A60EF
:1016EC00124B1A68D0075CBF01221A60104B1A68A3
:1016FC00D1075CBF01221A600E4B1A68D2075CBF7F
:10170C0001221A60704700BF340900203009002004
:10171C002C09002028090020240900202009002081
:10172C001C090020180900201409002010090020B1
:10173C000C09002008090020184B1A68D1075CBF5F
:10174C0001221A60164B1A68D2075CBF01221A607C
:10175C00144B1A68D0075CBF01221A60124B1A682E
:10176C00D1075CBF01221A60104B1A68D2075CBF0C
:10177C0001221A600E4B1A68D0075CBF01221A6056
:10178C000C4B1A68D1075CBF01221A600A4B1A680D
:10179C00D2075CBF01221A60704700BF54090020B9
:1017AC00500900204C090020480900204409002061
:1017BC00400900203C0900203809002010B5054CD8
:1017CC0013462CB10A4601460220AFF3008010BD2F
:1017DC00204610BD0000000010B5431E0A44914283
:1017EC0004D011F8014B03F8014FF8E710BD034684
:1017FC000244934202D003F8011BFAE77047000041
:10180C0038B5124B05461C68A36BD3B91820FFF7EB
:10181C00E9F843F20E33A06303804AF6CD334380DC
:10182C0041F2342383804EF26D63C3804DF6EC633A
:10183C000381052343810B23838101220023C0E90B
:10184C000423A36B00221D615A6138BDA000002047
:10185C00034613F8012B002AFBD1181A01387047E4
:10186C001D000A085D000A0889000A088D000A0894
:10187C000000000053747269707320566F6C7461B1
:10188C0067653A0053656E64657220496E746572C3
:10189C00666572656E636520566F6C746167653A38
:1018AC00005265636569766520496E74657266657C
:1018BC0072656E636520566F6C746167653A002CB7
:1018CC00004F534D0053494D0052494D00737472F3
:1018DC0069704D6561737572650073656E646572D0
:1018EC00496E744D65617375726500726563496EFE
:1018FC00744D6561737572650061646453747269CB
:10190C0070004144440072656D6F76655374726962
:10191C00700053554200726563496E744D65617376
:10192C007572656D000000000000000000000000F2
:10193C00210A0A082B0A0A08350A0A083F0A0A086B
:10194C00490A0A08550A0A08610A0A086D0A0A08AF
:10195C00750A0A087F0A0A08890A0A0800000000AA
:10196C0000000000ED0A0A08EF0A0A080000000057
:10197C0000000000CD0B0A08C30B0A08B90B0A08BB
:10198C002B0B0A08AD0B0A08A10B0A08950B0A08C9
:10199C008D0B0A08830B0A08790B0A08350B0A0809
:1019AC000000000000000000ED0B0A08370C0A08CC
:1019BC000F0C0A08EF0B0A08170C0A081F0C0A0870
:1019CC00270C0A082F0C0A08000000000000000079
:1019DC00710C0A08C10C0A08CF0C0A08C7110A08B6
:1019EC00850C0A08A70C0A08930C0A08BB0C0A08F9
:1019FC00730C0A08770C0A080000000000000000B5
:101A0C009F0D0A08EF0D0A08FD0D0A08C7110A08F8
:101A1C00DB0D0A08A10D0A08B70D0A08E90D0A0822
:101A2C00CD0D0A089B0D0A08000000000000000004
:101A3C00510F0A08410F0A08430F0A085A00252BB8
:101A4C003033643A253032750025592D256D2D25FE
:101A5C00645425483A254D3A2553257A0061736321
:101A6C0074696D6500626175640053657269616CBF
:101A7C000055534253657269616C3100747970651D
:101A8C0000706172616D00636D6400696400686E62
:101A9C0064007374726D0066696C74006C766C0013
:101AAC0061646448616E646C65720072656D6F761A
:101ABC006548616E646C657200656E756D48616E2B
:101ACC00646C657273004A534F4E53747265616D4A
:101ADC004C6F6748616E646C6572006170700025B4
:101AEC003031307520005D20002564002C2000284A
:101AFC00293A2000205B00636F6465203D2000259F
:101B0C00690064657461696C73203D20000D0A00E6
:101B1C0066006C6E00666E00636F646500646574CD
:101B2C0061696C006E6F6E6500747261636500694B
:101B3C006E666F007761726E006572726F72007004
:101B4C00616E696300616C6C0000000000000000B5
:101B5C000000000000000000000000000000000079
:101B6C000000000000000000000000000000000069
:101B7C000000000000000000000000000000000059
:101B8C000000000000000000000000000000000049
:101B9C000000000000000000000000000000000039
:101BAC0000000000000000000000000043000000E6
:101BBC001D060A08D90A0A08D90B0A0881110A0855
:101BCC009D110A08B1110A085D130A08B5130A0819
:101BDC00E5130A0839150A08BD150A0881160A0802
:041BEC0045170A0887
:041BF00000000000F1
:101BF4000A0000000A0000000B000000102700008B
:101C04000A000000102700000A0000000100000084
:101C14000F0000000E00000002000000040000009D
:101C24000A0000000300000010270000691A0A08D7
:101C340000000000581B0A08781B0A08981B0A08B1
:101C44000000000000000000000000000000000090
:101C5400B81B0A080000000000000000000000009B
:101C64000000000000000000000000000000000070
:101C74000000000000000000000000000000000060
:101C84000000000000000000000000000000000050
:041C940040000020EC
:101C9800FFFFFFFF00000102030405060708090A09
:101CA8000B0C0D0E0F101112131415161718191A04
:081CB8001B1C1D1E1F2028004B
:041CC000785634120C
:04000005080A001CC9
:00000001FF
